{
  "contractName": "CharismaNFT",
  "abi": [
    {
      "inputs": [],
      "stateMutability": "nonpayable",
      "type": "constructor"
    },
    {
      "anonymous": false,
      "inputs": [
        {
          "indexed": true,
          "internalType": "address",
          "name": "owner",
          "type": "address"
        },
        {
          "indexed": true,
          "internalType": "address",
          "name": "approved",
          "type": "address"
        },
        {
          "indexed": true,
          "internalType": "uint256",
          "name": "tokenId",
          "type": "uint256"
        }
      ],
      "name": "Approval",
      "type": "event"
    },
    {
      "anonymous": false,
      "inputs": [
        {
          "indexed": true,
          "internalType": "address",
          "name": "owner",
          "type": "address"
        },
        {
          "indexed": true,
          "internalType": "address",
          "name": "operator",
          "type": "address"
        },
        {
          "indexed": false,
          "internalType": "bool",
          "name": "approved",
          "type": "bool"
        }
      ],
      "name": "ApprovalForAll",
      "type": "event"
    },
    {
      "anonymous": false,
      "inputs": [
        {
          "indexed": true,
          "internalType": "address",
          "name": "from",
          "type": "address"
        },
        {
          "indexed": true,
          "internalType": "address",
          "name": "to",
          "type": "address"
        },
        {
          "indexed": true,
          "internalType": "uint256",
          "name": "tokenId",
          "type": "uint256"
        }
      ],
      "name": "Transfer",
      "type": "event"
    },
    {
      "inputs": [
        {
          "internalType": "address",
          "name": "to",
          "type": "address"
        },
        {
          "internalType": "uint256",
          "name": "tokenId",
          "type": "uint256"
        }
      ],
      "name": "approve",
      "outputs": [],
      "stateMutability": "nonpayable",
      "type": "function"
    },
    {
      "inputs": [
        {
          "internalType": "address",
          "name": "owner",
          "type": "address"
        }
      ],
      "name": "balanceOf",
      "outputs": [
        {
          "internalType": "uint256",
          "name": "",
          "type": "uint256"
        }
      ],
      "stateMutability": "view",
      "type": "function",
      "constant": true
    },
    {
      "inputs": [
        {
          "internalType": "uint256",
          "name": "tokenId",
          "type": "uint256"
        }
      ],
      "name": "getApproved",
      "outputs": [
        {
          "internalType": "address",
          "name": "",
          "type": "address"
        }
      ],
      "stateMutability": "view",
      "type": "function",
      "constant": true
    },
    {
      "inputs": [
        {
          "internalType": "address",
          "name": "owner",
          "type": "address"
        },
        {
          "internalType": "address",
          "name": "operator",
          "type": "address"
        }
      ],
      "name": "isApprovedForAll",
      "outputs": [
        {
          "internalType": "bool",
          "name": "",
          "type": "bool"
        }
      ],
      "stateMutability": "view",
      "type": "function",
      "constant": true
    },
    {
      "inputs": [],
      "name": "name",
      "outputs": [
        {
          "internalType": "string",
          "name": "",
          "type": "string"
        }
      ],
      "stateMutability": "view",
      "type": "function",
      "constant": true
    },
    {
      "inputs": [
        {
          "internalType": "uint256",
          "name": "tokenId",
          "type": "uint256"
        }
      ],
      "name": "ownerOf",
      "outputs": [
        {
          "internalType": "address",
          "name": "",
          "type": "address"
        }
      ],
      "stateMutability": "view",
      "type": "function",
      "constant": true
    },
    {
      "inputs": [
        {
          "internalType": "address",
          "name": "from",
          "type": "address"
        },
        {
          "internalType": "address",
          "name": "to",
          "type": "address"
        },
        {
          "internalType": "uint256",
          "name": "tokenId",
          "type": "uint256"
        }
      ],
      "name": "safeTransferFrom",
      "outputs": [],
      "stateMutability": "nonpayable",
      "type": "function"
    },
    {
      "inputs": [
        {
          "internalType": "address",
          "name": "from",
          "type": "address"
        },
        {
          "internalType": "address",
          "name": "to",
          "type": "address"
        },
        {
          "internalType": "uint256",
          "name": "tokenId",
          "type": "uint256"
        },
        {
          "internalType": "bytes",
          "name": "_data",
          "type": "bytes"
        }
      ],
      "name": "safeTransferFrom",
      "outputs": [],
      "stateMutability": "nonpayable",
      "type": "function"
    },
    {
      "inputs": [
        {
          "internalType": "address",
          "name": "operator",
          "type": "address"
        },
        {
          "internalType": "bool",
          "name": "approved",
          "type": "bool"
        }
      ],
      "name": "setApprovalForAll",
      "outputs": [],
      "stateMutability": "nonpayable",
      "type": "function"
    },
    {
      "inputs": [
        {
          "internalType": "bytes4",
          "name": "interfaceId",
          "type": "bytes4"
        }
      ],
      "name": "supportsInterface",
      "outputs": [
        {
          "internalType": "bool",
          "name": "",
          "type": "bool"
        }
      ],
      "stateMutability": "view",
      "type": "function",
      "constant": true
    },
    {
      "inputs": [],
      "name": "symbol",
      "outputs": [
        {
          "internalType": "string",
          "name": "",
          "type": "string"
        }
      ],
      "stateMutability": "view",
      "type": "function",
      "constant": true
    },
    {
      "inputs": [
        {
          "internalType": "uint256",
          "name": "index",
          "type": "uint256"
        }
      ],
      "name": "tokenByIndex",
      "outputs": [
        {
          "internalType": "uint256",
          "name": "",
          "type": "uint256"
        }
      ],
      "stateMutability": "view",
      "type": "function",
      "constant": true
    },
    {
      "inputs": [
        {
          "internalType": "address",
          "name": "owner",
          "type": "address"
        },
        {
          "internalType": "uint256",
          "name": "index",
          "type": "uint256"
        }
      ],
      "name": "tokenOfOwnerByIndex",
      "outputs": [
        {
          "internalType": "uint256",
          "name": "",
          "type": "uint256"
        }
      ],
      "stateMutability": "view",
      "type": "function",
      "constant": true
    },
    {
      "inputs": [
        {
          "internalType": "uint256",
          "name": "tokenId",
          "type": "uint256"
        }
      ],
      "name": "tokenURI",
      "outputs": [
        {
          "internalType": "string",
          "name": "",
          "type": "string"
        }
      ],
      "stateMutability": "view",
      "type": "function",
      "constant": true
    },
    {
      "inputs": [],
      "name": "totalSupply",
      "outputs": [
        {
          "internalType": "uint256",
          "name": "",
          "type": "uint256"
        }
      ],
      "stateMutability": "view",
      "type": "function",
      "constant": true
    },
    {
      "inputs": [
        {
          "internalType": "address",
          "name": "from",
          "type": "address"
        },
        {
          "internalType": "address",
          "name": "to",
          "type": "address"
        },
        {
          "internalType": "uint256",
          "name": "tokenId",
          "type": "uint256"
        }
      ],
      "name": "transferFrom",
      "outputs": [],
      "stateMutability": "nonpayable",
      "type": "function"
    },
    {
      "inputs": [
        {
          "internalType": "uint256",
          "name": "",
          "type": "uint256"
        }
      ],
      "name": "wips",
      "outputs": [
        {
          "internalType": "string",
          "name": "",
          "type": "string"
        }
      ],
      "stateMutability": "view",
      "type": "function",
      "constant": true
    },
    {
      "inputs": [
        {
          "internalType": "string",
          "name": "_wpi",
          "type": "string"
        }
      ],
      "name": "mint",
      "outputs": [],
      "stateMutability": "payable",
      "type": "function",
      "payable": true
    }
  ],
  "bytecode": "0x60806040523480156200001157600080fd5b506040518060400160405280600b81526020017f4368617269736d614e46540000000000000000000000000000000000000000008152506040518060400160405280600381526020017f5750490000000000000000000000000000000000000000000000000000000000815250816000908051906020019062000096929190620000b8565b508060019080519060200190620000af929190620000b8565b505050620001cd565b828054620000c69062000197565b90600052602060002090601f016020900481019282620000ea576000855562000136565b82601f106200010557805160ff191683800117855562000136565b8280016001018555821562000136579182015b828111156200013557825182559160200191906001019062000118565b5b50905062000145919062000149565b5090565b5b80821115620001645760008160009055506001016200014a565b5090565b7f4e487b7100000000000000000000000000000000000000000000000000000000600052602260045260246000fd5b60006002820490506001821680620001b057607f821691505b60208210811415620001c757620001c662000168565b5b50919050565b61327180620001dd6000396000f3fe6080604052600436106101095760003560e01c80636352211e11610095578063a22cb46511610064578063a22cb465146103b5578063b88d4fde146103de578063c87b56dd14610407578063d85d3d2714610444578063e985e9c51461046057610109565b80636352211e146102d357806370a082311461031057806395d89b411461034d5780639f5219f71461037857610109565b806318160ddd116100dc57806318160ddd146101dc57806323b872dd146102075780632f745c591461023057806342842e0e1461026d5780634f6ccce71461029657610109565b806301ffc9a71461010e57806306fdde031461014b578063081812fc14610176578063095ea7b3146101b3575b600080fd5b34801561011a57600080fd5b5061013560048036038101906101309190611fb7565b61049d565b6040516101429190611fff565b60405180910390f35b34801561015757600080fd5b50610160610517565b60405161016d91906120b3565b60405180910390f35b34801561018257600080fd5b5061019d6004803603810190610198919061210b565b6105a9565b6040516101aa9190612179565b60405180910390f35b3480156101bf57600080fd5b506101da60048036038101906101d591906121c0565b61062e565b005b3480156101e857600080fd5b506101f1610746565b6040516101fe919061220f565b60405180910390f35b34801561021357600080fd5b5061022e6004803603810190610229919061222a565b610753565b005b34801561023c57600080fd5b50610257600480360381019061025291906121c0565b6107b3565b604051610264919061220f565b60405180910390f35b34801561027957600080fd5b50610294600480360381019061028f919061222a565b610858565b005b3480156102a257600080fd5b506102bd60048036038101906102b8919061210b565b610878565b6040516102ca919061220f565b60405180910390f35b3480156102df57600080fd5b506102fa60048036038101906102f5919061210b565b6108e9565b6040516103079190612179565b60405180910390f35b34801561031c57600080fd5b506103376004803603810190610332919061227d565b61099b565b604051610344919061220f565b60405180910390f35b34801561035957600080fd5b50610362610a53565b60405161036f91906120b3565b60405180910390f35b34801561038457600080fd5b5061039f600480360381019061039a919061210b565b610ae5565b6040516103ac91906120b3565b60405180910390f35b3480156103c157600080fd5b506103dc60048036038101906103d791906122d6565b610b91565b005b3480156103ea57600080fd5b506104056004803603810190610400919061244b565b610ba7565b005b34801561041357600080fd5b5061042e6004803603810190610429919061210b565b610c09565b60405161043b91906120b3565b60405180910390f35b61045e6004803603810190610459919061256f565b610cb0565b005b34801561046c57600080fd5b50610487600480360381019061048291906125b8565b610d10565b6040516104949190611fff565b60405180910390f35b60007f780e9d63000000000000000000000000000000000000000000000000000000007bffffffffffffffffffffffffffffffffffffffffffffffffffffffff1916827bffffffffffffffffffffffffffffffffffffffffffffffffffffffff19161480610510575061050f82610da4565b5b9050919050565b60606000805461052690612627565b80601f016020809104026020016040519081016040528092919081815260200182805461055290612627565b801561059f5780601f106105745761010080835404028352916020019161059f565b820191906000526020600020905b81548152906001019060200180831161058257829003601f168201915b5050505050905090565b60006105b482610e86565b6105f3576040517f08c379a00000000000000000000000000000000000000000000000000000000081526004016105ea906126cb565b60405180910390fd5b6004600083815260200190815260200160002060009054906101000a900473ffffffffffffffffffffffffffffffffffffffff169050919050565b6000610639826108e9565b90508073ffffffffffffffffffffffffffffffffffffffff168373ffffffffffffffffffffffffffffffffffffffff1614156106aa576040517f08c379a00000000000000000000000000000000000000000000000000000000081526004016106a19061275d565b60405180910390fd5b8073ffffffffffffffffffffffffffffffffffffffff166106c9610ef2565b73ffffffffffffffffffffffffffffffffffffffff1614806106f857506106f7816106f2610ef2565b610d10565b5b610737576040517f08c379a000000000000000000000000000000000000000000000000000000000815260040161072e906127ef565b60405180910390fd5b6107418383610efa565b505050565b6000600880549050905090565b61076461075e610ef2565b82610fb3565b6107a3576040517f08c379a000000000000000000000000000000000000000000000000000000000815260040161079a90612881565b60405180910390fd5b6107ae838383611091565b505050565b60006107be8361099b565b82106107ff576040517f08c379a00000000000000000000000000000000000000000000000000000000081526004016107f690612913565b60405180910390fd5b600660008473ffffffffffffffffffffffffffffffffffffffff1673ffffffffffffffffffffffffffffffffffffffff168152602001908152602001600020600083815260200190815260200160002054905092915050565b61087383838360405180602001604052806000815250610ba7565b505050565b6000610882610746565b82106108c3576040517f08c379a00000000000000000000000000000000000000000000000000000000081526004016108ba906129a5565b60405180910390fd5b600882815481106108d7576108d66129c5565b5b90600052602060002001549050919050565b6000806002600084815260200190815260200160002060009054906101000a900473ffffffffffffffffffffffffffffffffffffffff169050600073ffffffffffffffffffffffffffffffffffffffff168173ffffffffffffffffffffffffffffffffffffffff161415610992576040517f08c379a000000000000000000000000000000000000000000000000000000000815260040161098990612a66565b60405180910390fd5b80915050919050565b60008073ffffffffffffffffffffffffffffffffffffffff168273ffffffffffffffffffffffffffffffffffffffff161415610a0c576040517f08c379a0000000000000000000000000000000000000000000000000000000008152600401610a0390612af8565b60405180910390fd5b600360008373ffffffffffffffffffffffffffffffffffffffff1673ffffffffffffffffffffffffffffffffffffffff168152602001908152602001600020549050919050565b606060018054610a6290612627565b80601f0160208091040260200160405190810160405280929190818152602001828054610a8e90612627565b8015610adb5780601f10610ab057610100808354040283529160200191610adb565b820191906000526020600020905b815481529060010190602001808311610abe57829003601f168201915b5050505050905090565b600a8181548110610af557600080fd5b906000526020600020016000915090508054610b1090612627565b80601f0160208091040260200160405190810160405280929190818152602001828054610b3c90612627565b8015610b895780601f10610b5e57610100808354040283529160200191610b89565b820191906000526020600020905b815481529060010190602001808311610b6c57829003601f168201915b505050505081565b610ba3610b9c610ef2565b83836112ed565b5050565b610bb8610bb2610ef2565b83610fb3565b610bf7576040517f08c379a0000000000000000000000000000000000000000000000000000000008152600401610bee90612881565b60405180910390fd5b610c038484848461145a565b50505050565b6060610c1482610e86565b610c53576040517f08c379a0000000000000000000000000000000000000000000000000000000008152600401610c4a90612b8a565b60405180910390fd5b6000610c5d6114b6565b90506000815111610c7d5760405180602001604052806000815250610ca8565b80610c87846114cd565b604051602001610c98929190612be6565b6040516020818303038152906040525b915050919050565b600a81908060018154018082558091505060019003906000526020600020016000909190919091509080519060200190610ceb929190611ea8565b5060006001600a80549050610d009190612c39565b9050610d0c338261162e565b5050565b6000600560008473ffffffffffffffffffffffffffffffffffffffff1673ffffffffffffffffffffffffffffffffffffffff16815260200190815260200160002060008373ffffffffffffffffffffffffffffffffffffffff1673ffffffffffffffffffffffffffffffffffffffff16815260200190815260200160002060009054906101000a900460ff16905092915050565b60007f80ac58cd000000000000000000000000000000000000000000000000000000007bffffffffffffffffffffffffffffffffffffffffffffffffffffffff1916827bffffffffffffffffffffffffffffffffffffffffffffffffffffffff19161480610e6f57507f5b5e139f000000000000000000000000000000000000000000000000000000007bffffffffffffffffffffffffffffffffffffffffffffffffffffffff1916827bffffffffffffffffffffffffffffffffffffffffffffffffffffffff1916145b80610e7f5750610e7e8261164c565b5b9050919050565b60008073ffffffffffffffffffffffffffffffffffffffff166002600084815260200190815260200160002060009054906101000a900473ffffffffffffffffffffffffffffffffffffffff1673ffffffffffffffffffffffffffffffffffffffff1614159050919050565b600033905090565b816004600083815260200190815260200160002060006101000a81548173ffffffffffffffffffffffffffffffffffffffff021916908373ffffffffffffffffffffffffffffffffffffffff160217905550808273ffffffffffffffffffffffffffffffffffffffff16610f6d836108e9565b73ffffffffffffffffffffffffffffffffffffffff167f8c5be1e5ebec7d5bd14f71427d1e84f3dd0314c0f7b2291e5b200ac8c7c3b92560405160405180910390a45050565b6000610fbe82610e86565b610ffd576040517f08c379a0000000000000000000000000000000000000000000000000000000008152600401610ff490612cdf565b60405180910390fd5b6000611008836108e9565b90508073ffffffffffffffffffffffffffffffffffffffff168473ffffffffffffffffffffffffffffffffffffffff16148061107757508373ffffffffffffffffffffffffffffffffffffffff1661105f846105a9565b73ffffffffffffffffffffffffffffffffffffffff16145b8061108857506110878185610d10565b5b91505092915050565b8273ffffffffffffffffffffffffffffffffffffffff166110b1826108e9565b73ffffffffffffffffffffffffffffffffffffffff1614611107576040517f08c379a00000000000000000000000000000000000000000000000000000000081526004016110fe90612d71565b60405180910390fd5b600073ffffffffffffffffffffffffffffffffffffffff168273ffffffffffffffffffffffffffffffffffffffff161415611177576040517f08c379a000000000000000000000000000000000000000000000000000000000815260040161116e90612e03565b60405180910390fd5b6111828383836116b6565b61118d600082610efa565b6001600360008573ffffffffffffffffffffffffffffffffffffffff1673ffffffffffffffffffffffffffffffffffffffff16815260200190815260200160002060008282546111dd9190612c39565b925050819055506001600360008473ffffffffffffffffffffffffffffffffffffffff1673ffffffffffffffffffffffffffffffffffffffff16815260200190815260200160002060008282546112349190612e23565b92505081905550816002600083815260200190815260200160002060006101000a81548173ffffffffffffffffffffffffffffffffffffffff021916908373ffffffffffffffffffffffffffffffffffffffff160217905550808273ffffffffffffffffffffffffffffffffffffffff168473ffffffffffffffffffffffffffffffffffffffff167fddf252ad1be2c89b69c2b068fc378daa952ba7f163c4a11628f55a4df523b3ef60405160405180910390a4505050565b8173ffffffffffffffffffffffffffffffffffffffff168373ffffffffffffffffffffffffffffffffffffffff16141561135c576040517f08c379a000000000000000000000000000000000000000000000000000000000815260040161135390612ec5565b60405180910390fd5b80600560008573ffffffffffffffffffffffffffffffffffffffff1673ffffffffffffffffffffffffffffffffffffffff16815260200190815260200160002060008473ffffffffffffffffffffffffffffffffffffffff1673ffffffffffffffffffffffffffffffffffffffff16815260200190815260200160002060006101000a81548160ff0219169083151502179055508173ffffffffffffffffffffffffffffffffffffffff168373ffffffffffffffffffffffffffffffffffffffff167f17307eab39ab6107e8899845ad3d59bd9653f200f220920489ca2b5937696c318360405161144d9190611fff565b60405180910390a3505050565b611465848484611091565b611471848484846117ca565b6114b0576040517f08c379a00000000000000000000000000000000000000000000000000000000081526004016114a790612f57565b60405180910390fd5b50505050565b606060405180602001604052806000815250905090565b60606000821415611515576040518060400160405280600181526020017f30000000000000000000000000000000000000000000000000000000000000008152509050611629565b600082905060005b6000821461154757808061153090612f77565b915050600a826115409190612fef565b915061151d565b60008167ffffffffffffffff81111561156357611562612320565b5b6040519080825280601f01601f1916602001820160405280156115955781602001600182028036833780820191505090505b5090505b60008514611622576001826115ae9190612c39565b9150600a856115bd9190613020565b60306115c99190612e23565b60f81b8183815181106115df576115de6129c5565b5b60200101907effffffffffffffffffffffffffffffffffffffffffffffffffffffffffffff1916908160001a905350600a8561161b9190612fef565b9450611599565b8093505050505b919050565b611648828260405180602001604052806000815250611961565b5050565b60007f01ffc9a7000000000000000000000000000000000000000000000000000000007bffffffffffffffffffffffffffffffffffffffffffffffffffffffff1916827bffffffffffffffffffffffffffffffffffffffffffffffffffffffff1916149050919050565b6116c18383836119bc565b600073ffffffffffffffffffffffffffffffffffffffff168373ffffffffffffffffffffffffffffffffffffffff161415611704576116ff816119c1565b611743565b8173ffffffffffffffffffffffffffffffffffffffff168373ffffffffffffffffffffffffffffffffffffffff1614611742576117418382611a0a565b5b5b600073ffffffffffffffffffffffffffffffffffffffff168273ffffffffffffffffffffffffffffffffffffffff1614156117865761178181611b77565b6117c5565b8273ffffffffffffffffffffffffffffffffffffffff168273ffffffffffffffffffffffffffffffffffffffff16146117c4576117c38282611c48565b5b5b505050565b60006117eb8473ffffffffffffffffffffffffffffffffffffffff16611cc7565b15611954578373ffffffffffffffffffffffffffffffffffffffff1663150b7a02611814610ef2565b8786866040518563ffffffff1660e01b815260040161183694939291906130a6565b602060405180830381600087803b15801561185057600080fd5b505af192505050801561188157506040513d601f19601f8201168201806040525081019061187e9190613107565b60015b611904573d80600081146118b1576040519150601f19603f3d011682016040523d82523d6000602084013e6118b6565b606091505b506000815114156118fc576040517f08c379a00000000000000000000000000000000000000000000000000000000081526004016118f390612f57565b60405180910390fd5b805181602001fd5b63150b7a0260e01b7bffffffffffffffffffffffffffffffffffffffffffffffffffffffff1916817bffffffffffffffffffffffffffffffffffffffffffffffffffffffff191614915050611959565b600190505b949350505050565b61196b8383611cda565b61197860008484846117ca565b6119b7576040517f08c379a00000000000000000000000000000000000000000000000000000000081526004016119ae90612f57565b60405180910390fd5b505050565b505050565b6008805490506009600083815260200190815260200160002081905550600881908060018154018082558091505060019003906000526020600020016000909190919091505550565b60006001611a178461099b565b611a219190612c39565b9050600060076000848152602001908152602001600020549050818114611b06576000600660008673ffffffffffffffffffffffffffffffffffffffff1673ffffffffffffffffffffffffffffffffffffffff168152602001908152602001600020600084815260200190815260200160002054905080600660008773ffffffffffffffffffffffffffffffffffffffff1673ffffffffffffffffffffffffffffffffffffffff168152602001908152602001600020600084815260200190815260200160002081905550816007600083815260200190815260200160002081905550505b6007600084815260200190815260200160002060009055600660008573ffffffffffffffffffffffffffffffffffffffff1673ffffffffffffffffffffffffffffffffffffffff16815260200190815260200160002060008381526020019081526020016000206000905550505050565b60006001600880549050611b8b9190612c39565b9050600060096000848152602001908152602001600020549050600060088381548110611bbb57611bba6129c5565b5b906000526020600020015490508060088381548110611bdd57611bdc6129c5565b5b906000526020600020018190555081600960008381526020019081526020016000208190555060096000858152602001908152602001600020600090556008805480611c2c57611c2b613134565b5b6001900381819060005260206000200160009055905550505050565b6000611c538361099b565b905081600660008573ffffffffffffffffffffffffffffffffffffffff1673ffffffffffffffffffffffffffffffffffffffff168152602001908152602001600020600083815260200190815260200160002081905550806007600084815260200190815260200160002081905550505050565b600080823b905060008111915050919050565b600073ffffffffffffffffffffffffffffffffffffffff168273ffffffffffffffffffffffffffffffffffffffff161415611d4a576040517f08c379a0000000000000000000000000000000000000000000000000000000008152600401611d41906131af565b60405180910390fd5b611d5381610e86565b15611d93576040517f08c379a0000000000000000000000000000000000000000000000000000000008152600401611d8a9061321b565b60405180910390fd5b611d9f600083836116b6565b6001600360008473ffffffffffffffffffffffffffffffffffffffff1673ffffffffffffffffffffffffffffffffffffffff1681526020019081526020016000206000828254611def9190612e23565b92505081905550816002600083815260200190815260200160002060006101000a81548173ffffffffffffffffffffffffffffffffffffffff021916908373ffffffffffffffffffffffffffffffffffffffff160217905550808273ffffffffffffffffffffffffffffffffffffffff16600073ffffffffffffffffffffffffffffffffffffffff167fddf252ad1be2c89b69c2b068fc378daa952ba7f163c4a11628f55a4df523b3ef60405160405180910390a45050565b828054611eb490612627565b90600052602060002090601f016020900481019282611ed65760008555611f1d565b82601f10611eef57805160ff1916838001178555611f1d565b82800160010185558215611f1d579182015b82811115611f1c578251825591602001919060010190611f01565b5b509050611f2a9190611f2e565b5090565b5b80821115611f47576000816000905550600101611f2f565b5090565b6000604051905090565b600080fd5b600080fd5b60007fffffffff0000000000000000000000000000000000000000000000000000000082169050919050565b611f9481611f5f565b8114611f9f57600080fd5b50565b600081359050611fb181611f8b565b92915050565b600060208284031215611fcd57611fcc611f55565b5b6000611fdb84828501611fa2565b91505092915050565b60008115159050919050565b611ff981611fe4565b82525050565b60006020820190506120146000830184611ff0565b92915050565b600081519050919050565b600082825260208201905092915050565b60005b83811015612054578082015181840152602081019050612039565b83811115612063576000848401525b50505050565b6000601f19601f8301169050919050565b60006120858261201a565b61208f8185612025565b935061209f818560208601612036565b6120a881612069565b840191505092915050565b600060208201905081810360008301526120cd818461207a565b905092915050565b6000819050919050565b6120e8816120d5565b81146120f357600080fd5b50565b600081359050612105816120df565b92915050565b60006020828403121561212157612120611f55565b5b600061212f848285016120f6565b91505092915050565b600073ffffffffffffffffffffffffffffffffffffffff82169050919050565b600061216382612138565b9050919050565b61217381612158565b82525050565b600060208201905061218e600083018461216a565b92915050565b61219d81612158565b81146121a857600080fd5b50565b6000813590506121ba81612194565b92915050565b600080604083850312156121d7576121d6611f55565b5b60006121e5858286016121ab565b92505060206121f6858286016120f6565b9150509250929050565b612209816120d5565b82525050565b60006020820190506122246000830184612200565b92915050565b60008060006060848603121561224357612242611f55565b5b6000612251868287016121ab565b9350506020612262868287016121ab565b9250506040612273868287016120f6565b9150509250925092565b60006020828403121561229357612292611f55565b5b60006122a1848285016121ab565b91505092915050565b6122b381611fe4565b81146122be57600080fd5b50565b6000813590506122d0816122aa565b92915050565b600080604083850312156122ed576122ec611f55565b5b60006122fb858286016121ab565b925050602061230c858286016122c1565b9150509250929050565b600080fd5b600080fd5b7f4e487b7100000000000000000000000000000000000000000000000000000000600052604160045260246000fd5b61235882612069565b810181811067ffffffffffffffff8211171561237757612376612320565b5b80604052505050565b600061238a611f4b565b9050612396828261234f565b919050565b600067ffffffffffffffff8211156123b6576123b5612320565b5b6123bf82612069565b9050602081019050919050565b82818337600083830152505050565b60006123ee6123e98461239b565b612380565b90508281526020810184848401111561240a5761240961231b565b5b6124158482856123cc565b509392505050565b600082601f83011261243257612431612316565b5b81356124428482602086016123db565b91505092915050565b6000806000806080858703121561246557612464611f55565b5b6000612473878288016121ab565b9450506020612484878288016121ab565b9350506040612495878288016120f6565b925050606085013567ffffffffffffffff8111156124b6576124b5611f5a565b5b6124c28782880161241d565b91505092959194509250565b600067ffffffffffffffff8211156124e9576124e8612320565b5b6124f282612069565b9050602081019050919050565b600061251261250d846124ce565b612380565b90508281526020810184848401111561252e5761252d61231b565b5b6125398482856123cc565b509392505050565b600082601f83011261255657612555612316565b5b81356125668482602086016124ff565b91505092915050565b60006020828403121561258557612584611f55565b5b600082013567ffffffffffffffff8111156125a3576125a2611f5a565b5b6125af84828501612541565b91505092915050565b600080604083850312156125cf576125ce611f55565b5b60006125dd858286016121ab565b92505060206125ee858286016121ab565b9150509250929050565b7f4e487b7100000000000000000000000000000000000000000000000000000000600052602260045260246000fd5b6000600282049050600182168061263f57607f821691505b60208210811415612653576126526125f8565b5b50919050565b7f4552433732313a20617070726f76656420717565727920666f72206e6f6e657860008201527f697374656e7420746f6b656e0000000000000000000000000000000000000000602082015250565b60006126b5602c83612025565b91506126c082612659565b604082019050919050565b600060208201905081810360008301526126e4816126a8565b9050919050565b7f4552433732313a20617070726f76616c20746f2063757272656e74206f776e6560008201527f7200000000000000000000000000000000000000000000000000000000000000602082015250565b6000612747602183612025565b9150612752826126eb565b604082019050919050565b600060208201905081810360008301526127768161273a565b9050919050565b7f4552433732313a20617070726f76652063616c6c6572206973206e6f74206f7760008201527f6e6572206e6f7220617070726f76656420666f7220616c6c0000000000000000602082015250565b60006127d9603883612025565b91506127e48261277d565b604082019050919050565b60006020820190508181036000830152612808816127cc565b9050919050565b7f4552433732313a207472616e736665722063616c6c6572206973206e6f74206f60008201527f776e6572206e6f7220617070726f766564000000000000000000000000000000602082015250565b600061286b603183612025565b91506128768261280f565b604082019050919050565b6000602082019050818103600083015261289a8161285e565b9050919050565b7f455243373231456e756d657261626c653a206f776e657220696e646578206f7560008201527f74206f6620626f756e6473000000000000000000000000000000000000000000602082015250565b60006128fd602b83612025565b9150612908826128a1565b604082019050919050565b6000602082019050818103600083015261292c816128f0565b9050919050565b7f455243373231456e756d657261626c653a20676c6f62616c20696e646578206f60008201527f7574206f6620626f756e64730000000000000000000000000000000000000000602082015250565b600061298f602c83612025565b915061299a82612933565b604082019050919050565b600060208201905081810360008301526129be81612982565b9050919050565b7f4e487b7100000000000000000000000000000000000000000000000000000000600052603260045260246000fd5b7f4552433732313a206f776e657220717565727920666f72206e6f6e657869737460008201527f656e7420746f6b656e0000000000000000000000000000000000000000000000602082015250565b6000612a50602983612025565b9150612a5b826129f4565b604082019050919050565b60006020820190508181036000830152612a7f81612a43565b9050919050565b7f4552433732313a2062616c616e636520717565727920666f7220746865207a6560008201527f726f206164647265737300000000000000000000000000000000000000000000602082015250565b6000612ae2602a83612025565b9150612aed82612a86565b604082019050919050565b60006020820190508181036000830152612b1181612ad5565b9050919050565b7f4552433732314d657461646174613a2055524920717565727920666f72206e6f60008201527f6e6578697374656e7420746f6b656e0000000000000000000000000000000000602082015250565b6000612b74602f83612025565b9150612b7f82612b18565b604082019050919050565b60006020820190508181036000830152612ba381612b67565b9050919050565b600081905092915050565b6000612bc08261201a565b612bca8185612baa565b9350612bda818560208601612036565b80840191505092915050565b6000612bf28285612bb5565b9150612bfe8284612bb5565b91508190509392505050565b7f4e487b7100000000000000000000000000000000000000000000000000000000600052601160045260246000fd5b6000612c44826120d5565b9150612c4f836120d5565b925082821015612c6257612c61612c0a565b5b828203905092915050565b7f4552433732313a206f70657261746f7220717565727920666f72206e6f6e657860008201527f697374656e7420746f6b656e0000000000000000000000000000000000000000602082015250565b6000612cc9602c83612025565b9150612cd482612c6d565b604082019050919050565b60006020820190508181036000830152612cf881612cbc565b9050919050565b7f4552433732313a207472616e73666572206f6620746f6b656e2074686174206960008201527f73206e6f74206f776e0000000000000000000000000000000000000000000000602082015250565b6000612d5b602983612025565b9150612d6682612cff565b604082019050919050565b60006020820190508181036000830152612d8a81612d4e565b9050919050565b7f4552433732313a207472616e7366657220746f20746865207a65726f2061646460008201527f7265737300000000000000000000000000000000000000000000000000000000602082015250565b6000612ded602483612025565b9150612df882612d91565b604082019050919050565b60006020820190508181036000830152612e1c81612de0565b9050919050565b6000612e2e826120d5565b9150612e39836120d5565b9250827fffffffffffffffffffffffffffffffffffffffffffffffffffffffffffffffff03821115612e6e57612e6d612c0a565b5b828201905092915050565b7f4552433732313a20617070726f766520746f2063616c6c657200000000000000600082015250565b6000612eaf601983612025565b9150612eba82612e79565b602082019050919050565b60006020820190508181036000830152612ede81612ea2565b9050919050565b7f4552433732313a207472616e7366657220746f206e6f6e20455243373231526560008201527f63656976657220696d706c656d656e7465720000000000000000000000000000602082015250565b6000612f41603283612025565b9150612f4c82612ee5565b604082019050919050565b60006020820190508181036000830152612f7081612f34565b9050919050565b6000612f82826120d5565b91507fffffffffffffffffffffffffffffffffffffffffffffffffffffffffffffffff821415612fb557612fb4612c0a565b5b600182019050919050565b7f4e487b7100000000000000000000000000000000000000000000000000000000600052601260045260246000fd5b6000612ffa826120d5565b9150613005836120d5565b92508261301557613014612fc0565b5b828204905092915050565b600061302b826120d5565b9150613036836120d5565b92508261304657613045612fc0565b5b828206905092915050565b600081519050919050565b600082825260208201905092915050565b600061307882613051565b613082818561305c565b9350613092818560208601612036565b61309b81612069565b840191505092915050565b60006080820190506130bb600083018761216a565b6130c8602083018661216a565b6130d56040830185612200565b81810360608301526130e7818461306d565b905095945050505050565b60008151905061310181611f8b565b92915050565b60006020828403121561311d5761311c611f55565b5b600061312b848285016130f2565b91505092915050565b7f4e487b7100000000000000000000000000000000000000000000000000000000600052603160045260246000fd5b7f4552433732313a206d696e7420746f20746865207a65726f2061646472657373600082015250565b6000613199602083612025565b91506131a482613163565b602082019050919050565b600060208201905081810360008301526131c88161318c565b9050919050565b7f4552433732313a20746f6b656e20616c7265616479206d696e74656400000000600082015250565b6000613205601c83612025565b9150613210826131cf565b602082019050919050565b60006020820190508181036000830152613234816131f8565b905091905056fea2646970667358221220412a673e8347ec04ef0135c7aa375df1378b827d55b2a787fad449e9150d7f5c64736f6c63430008090033",
  "immutableReferences": {},
  "source": "//SPDX-License-Identifier: UNLICENSED\r\npragma solidity ^0.8.0;\r\n\r\nimport \"@openzeppelin/contracts/token/ERC721/extensions/ERC721Enumerable.sol\";\r\n\r\ncontract CharismaNFT is ERC721Enumerable{\r\n    \r\n    using Strings for uint256;\r\n    string[] public wips;\r\n\r\n\r\n    constructor() ERC721(\"CharismaNFT\", \"WPI\"){\r\n    }\r\n\r\n    function mint(string memory _wpi) public payable{\r\n       wips.push(_wpi);\r\n        uint256 _id = wips.length - 1;\r\n        _safeMint(msg.sender, _id);\r\n    }\r\n}",
  "sourcePath": "C:\\Users\\alexc\\Desktop\\charismanft\\contracts\\charismaNFT.sol",
  "compiler": {
    "name": "solc",
    "version": "0.8.9+commit.e5eed63a.Emscripten.clang"
  },
  "schemaVersion": "3.4.3",
  "updatedAt": "2022-01-16T05:45:11.481Z",
  "networkType": "ethereum",
  "devdoc": {
    "kind": "dev",
    "methods": {
      "approve(address,uint256)": {
        "details": "See {IERC721-approve}."
      },
      "balanceOf(address)": {
        "details": "See {IERC721-balanceOf}."
      },
      "getApproved(uint256)": {
        "details": "See {IERC721-getApproved}."
      },
      "isApprovedForAll(address,address)": {
        "details": "See {IERC721-isApprovedForAll}."
      },
      "name()": {
        "details": "See {IERC721Metadata-name}."
      },
      "ownerOf(uint256)": {
        "details": "See {IERC721-ownerOf}."
      },
      "safeTransferFrom(address,address,uint256)": {
        "details": "See {IERC721-safeTransferFrom}."
      },
      "safeTransferFrom(address,address,uint256,bytes)": {
        "details": "See {IERC721-safeTransferFrom}."
      },
      "setApprovalForAll(address,bool)": {
        "details": "See {IERC721-setApprovalForAll}."
      },
      "supportsInterface(bytes4)": {
        "details": "See {IERC165-supportsInterface}."
      },
      "symbol()": {
        "details": "See {IERC721Metadata-symbol}."
      },
      "tokenByIndex(uint256)": {
        "details": "See {IERC721Enumerable-tokenByIndex}."
      },
      "tokenOfOwnerByIndex(address,uint256)": {
        "details": "See {IERC721Enumerable-tokenOfOwnerByIndex}."
      },
      "tokenURI(uint256)": {
        "details": "See {IERC721Metadata-tokenURI}."
      },
      "totalSupply()": {
        "details": "See {IERC721Enumerable-totalSupply}."
      },
      "transferFrom(address,address,uint256)": {
        "details": "See {IERC721-transferFrom}."
      }
    },
    "version": 1
  },
  "userdoc": {
    "kind": "user",
    "methods": {},
    "version": 1
  }
}